:020000040800F2
:1000000000500020496A0008155A0008195A0008D3
:1000100000000000000000000000000000000000E0
:10002000000000000000000000000000295A000845
:1000300000000000000000002B5A00082D5A0008A4
:10004000996A0008996A00083D5A0008996A0008F0
:10005000996A0008455A0008555A0008655A000870
:10006000996A0008996A0008996A0008996A000864
:10007000996A0008996A0008996A0008996A000854
:10008000996A0008996A0008996A0008000000004F
:10009000996A0008996A0008996A0008996A000834
:1000A000996A0008996A0008996A0008996A000824
:1000B000355A0008996A0008996A0008996A000888
:1000C000002934D00123002210B488422CD301240B
:1000D0002407A14204D2814202D209011B01F8E7A0
:1000E000E400A14204D2814202D249005B00F8E759
:1000F000884201D3401A1A434C08A04202D3001B85
:100100005C0822438C08A04202D3001B9C082243B7
:10011000CC08A04202D3001BDC082243002803D0F5
:100120001B0901D00909E3E7101C10BC704701B599
:10013000002000F05FF802BD0029F8D003B5FFF7FA
:10014000C1FF0EBC4243891A1847C046002941D05E
:1001500010B4041C4C40A44601230022002900D501
:100160004942002800D5404288422CD3012424076C
:10017000A14204D2814202D209011B01F8E7E40046
:10018000A14204D2814202D249005B00F8E78842D2
:1001900001D3401A1A434C08A04202D3001B5C084A
:1001A00022438C08A04202D3001B9C082243CC08A7
:1001B000A04202D3001BDC082243002803D01B0905
:1001C00001D00909E3E7101C6446002C00D5404229
:1001D00010BC704701B5002000F00CF802BDC0460D
:1001E0000029F7D003B5FFF7B3FF0EBC4243891ACD
:1001F0001847C0467047C0468446101C62468C466D
:10020000191C634600E0C0461FB50BF05DFD0028D9
:1002100001D40021C8421FBD10B50BF0BDFC404207
:10022000013010BD10B50BF04FFD002801DB0020A0
:1002300010BD012010BDC04610B50BF045FD0028D3
:1002400001DD002010BD012010BDC04610B50BF02F
:10025000DBFC002801DC002010BD012010BDC046E1
:1002600010B50BF0D1FC002801DA002010BD0120F0
:1002700010BDC046002B15D1002A13D1002906DB82
:1002800001DC002806D00020C043410802E08021A4
:100290000906002007B4024801A14018029003BDDE
:1002A00055FFFFFF03B4684601B502980AF0A9FDA7
:1002B000019B9E4602B00CBC7047C046002B11D17A
:1002C000002A0FD1002900D1002802D00021C94303
:1002D000081C07B4024802A14018029003BDC046A2
:1002E00015FFFFFF03B4684601B502980AF018FD38
:1002F000019B9E4602B00CBC7047C04602B47146DA
:1003000049084900095C49008E4402BC7047C04658
:1003100003B47146490840004900095A49008E4417
:1003200003BC7047D0400B1CD1409C46203AD340C0
:100330001843524263469340184370479140031C50
:1003400090409C46203A9340194352426346D34022
:10035000194370471C2101231B04984201D3000C50
:1003600010391B0A984201D3000A08391B09984228
:1003700001D30009043902A2105C40187047C0463E
:10038000040302020101010100000000000000005E
:1003900010B5002903D1FFF7DDFF203002E0081C73
:1003A000FFF7D8FF10BDC04610B5064C2378002BD0
:1003B00007D1054B002B02D0044800E000BF012309
:1003C000237010BD5C0A002000000000C0CA0008B5
:1003D000044B10B5002B03D00349044800E000BFD4
:1003E00010BDC04600000000600A0020C0CA00081E
:1003F000024A136810218B4313607047007000405D
:1004000070B503689B6A4B6003681B695B045B0CF7
:100410008B6003681C68144B1C40260C3F20304046
:100420000870230A7F252B404B702C408C703F3D79
:100430003540CD70002A15D10509AA005219550082
:100440000F221040401908701D09A80040194500EE
:1004500013405B194B70200983001B18580014408F
:1004600024188C70002070BD7F7F7F0070B50368FA
:100470005B68144803401C0CCC70180A1F252840E8
:10048000487020351D408D705B0B072633400B7084
:10049000002A15D1220993009B185A000F231C40F3
:1004A000A418CC700409A2001219540018400019B5
:1004B000487028098200121850001D402D188D70B8
:1004C000002070BD3FFFFF00F8B504002023C35C8F
:1004D000012B00D1EAE020230120E0540133013058
:1004E000E054002A71D123689B685B0601D4002385
:1004F000CB70CE690B78100002E001300A3BDBB212
:10050000092BFAD80001C0B2184300044B7815003B
:1005100002E001350A3BDBB2092BFAD82D01EDB21E
:100520002B431B0203438878150002E001350A388B
:10053000C0B20928FAD82D01EDB228431843CB7870
:100540001B0418432023CD5C02E001320A3DEDB2CA
:10055000092DFAD81201D3B22B431B0603431E43C5
:100560004B691E434D688B691D432368CA225A623A
:100570002368773A5A624A6A80235B009A423DD0E8
:10058000226893684A490B4093602168CA68FF2338
:100590001A40484B1343CB6001F060FE070022680D
:1005A000D1688B075FD401F059FEC01BFA239B0072
:1005B0009842F4D92368FF225A622123FC3AE2547C
:1005C000013B0022E25403206FE023689B685B0636
:1005D00001D40023CB700E7836044B781B021E43E7
:1005E0008B781E43CB781B041E432023CB5C1B0659
:1005F0001E43CB691E434B691E43B3E722689368D1
:100600002D490B4093602168CA68FF231A402B4B89
:100610001343CB6001F022FE07002368DA68D2079B
:1006200011D401F01BFEC01BFA239B009842F4D9A1
:100630002368FF225A622123FC3AE254013B002244
:10064000E254032031E0DE6123685D642268916832
:1006500080235B000B4393602268916880235B01D9
:100660000B4393600EE0166223689D6422689168D4
:1006700080239B000B4393602268916880239B0139
:100680000B4393600E4B196880229202114319604C
:1006900099680A439A602368FF225A622123FE3A2E
:1006A000E254013B0022E2540020F8BD0220FCE7A6
:1006B000FFFDFFFF7FFDFFFFFFFEFFFF7FFEFFFF50
:1006C0000004014070B504002023C35C012B60D0FE
:1006D00020230122C25401330132C2540368C832BC
:1006E0005A620368773A5A6280235B00994222D0AB
:1006F0000268936828490B40936002689368274911
:100700000B40936001F0AAFD05002368DB689B079E
:1007100034D401F0A3FD401BFA239B009842F4D986
:100720002368FF225A622123FC3AE254013B002253
:10073000E25403202CE00268936819490B4093604F
:100740000268936817490B40936001F087FD05002C
:100750002368DB68DB0711D401F080FD401BFA231E
:100760009B009842F4D92368FF225A622123FC3A65
:10077000E254013B0022E254032009E02368FF22F7
:100780005A622123FE3AE254013B0022E254002047
:1007900070BD0220FCE7C046FFFDFFFFFFDFFFFF4B
:1007A000FFFEFFFFFFEFFFFF70B504000268D36894
:1007B000A0218B43D36001F051FD05002368DB6865
:1007C0009B0608D401F04AFD401BFA239B00984287
:1007D000F4D9032000E0002070BD70B50400036868
:1007E000DA68520601D5002070BD01225242DA605B
:1007F00001F034FD05002368DB685B0608D401F0D6
:100800002DFD401BFA239B009842F4D90320EBE70F
:100810000020E9E770B5041E4ED02123C35C002BF5
:100820003CD021230222E2542368C8325A62236852
:10083000773A5A622000FFF7D0FF002834D12268AF
:1008400093681E490B40936021688A686368256934
:100850002B43A5692B4313438B602368E2681A611D
:1008600021680B69A268120413430B612268D368E4
:1008700080218B43D3602268D36C7D398B43D36452
:100880002168CB6CE26965692A431343CB64236812
:10089000FF225A622123FE3AE25470BD2033002227
:1008A000C25404F031FEBCE72368FF225A622123C0
:1008B000FB3AE2540120F0E70120EEE7BFFF8FFF93
:1008C000F8B505000E002023C35C012B00D18FE09A
:1008D00020230121C15401330131C154002A5AD1CE
:1008E00003689B685B0601D40023F370337814001F
:1008F00002E001340A3BDBB2092BFAD82401E4B24E
:1009000023431B047478110002E001310A3CE4B275
:10091000092CFAD80901C9B20C4324022343B47844
:1009200002E001320A3CE4B2092CFAD81201D2B238
:1009300014431C43F3781B041C432B68CA225A62DD
:100940002B68773A5A622800FFF747FF071E33D11A
:100950002B68284A14401C602A68936826490B407B
:10096000936029688B68F2683069024313438B6097
:100970002A68D36880218B43D3602B689B689B06D1
:1009800026D52B68FF225A622123FE3AEA54013B06
:100990000022EA541AE003689B685B0601D4002336
:1009A000F3703478240473781B021C43B3781C431F
:1009B000F3781B041C43C0E72B68FF225A622123F3
:1009C000FB3AEA54013B0022EA5401273800F8BD03
:1009D0002800FFF7E9FE0028D3D02B68FF225A62D7
:1009E0002123FB3AEA54013B0022EA540127EDE7B8
:1009F0000227EBE77F7F7F00FFFFFBFF70B505005D
:100A00002023C35C012B00D180E020230120E85487
:100A100001330130E854002A06D14B78D80603D5BB
:100A2000102083430A334B70002A48D1CB7814003E
:100A300002E001340A3BDBB2092BFAD82401E4B20C
:100A400023431B044C78100002E001300A3CE4B25E
:100A5000092CFAD80001C0B20443240223438C7845
:100A600002E001320A3CE4B2092CFAD81201D2B2F7
:100A700014431C430B785B031C432B68CA225A6245
:100A80002B68773A5A622800FFF7A7FE061E21D18D
:100A90002B681F4A14405C602A68D36880218B430E
:100AA000D3602B689B689B0620D52B68FF225A6277
:100AB0002123FE3AEA54013B0022EA5414E04B7829
:100AC0008A78CC7824041B021C4314430B785B0304
:100AD0001C43D2E72B68FF225A622123FB3AEA54D7
:100AE000013B0022EA540126300070BD2800FFF7C8
:100AF0005BFE0028D9D02B68FF225A622123FB3AE3
:100B0000EA54013B0022EA540126EDE70226EBE716
:100B10003FFFFF0070B5002811DB8408134DC0347F
:100B2000A400625903231840C000FC331E00864015
:100B3000B24389010B4083401343635170BDC0B27F
:100B40000F220240083A920806329200084BD3184E
:100B50005D6803242040C000FF2214008440A543A8
:100B600089010A4082402A435A60E7E700E100E039
:100B700000ED00E01F2318401E3B8340014A136034
:100B80007047C04600E100E01F2318401E3B834031
:100B90000249802252008B507047C04600E100E0BD
:100BA0001F2318401E3B83400249C02252008B5035
:100BB0007047C04600E100E0F0B5C64600B506004B
:100BC0000C0017001D0001F049FB8046002F31D0BA
:100BD00033689B682340A34262D16B1CF8D0002D80
:100BE00005D001F03BFB4346C01AA842F0D9326859
:100BF0005368E0218B43536032681368A0398B43FC
:100C0000136080239B01B26A9A423DD05123012296
:100C1000F254013B0022F254032032E032681368A0
:100C200020490B4013603268116880239B010B43FD
:100C300013601DE033689B682340A34220D06B1CE7
:100C4000F8D0002D05D001F009FB4346C01AA84298
:100C5000F0D932685368E0218B43536032681368DF
:100C6000A0398B43136080239B01B26A9A42D5D08E
:100C700051230122F254013B0022F254032000E0F0
:100C8000002004BC9046F0BD3268136805490B4053
:100C900013603268116880239B010B431360B5E732
:100CA0000020EEE7FFDFFFFF7047000010B5041ED5
:100CB0003CD05123C35C002B32D051220223A354D9
:100CC00021680B68402083430B606368A1680B4375
:100CD000E1680B4321690B4361690B438021890063
:100CE000A06901400B43E1690B43216A0B43216872
:100CF000A06A03430B60618B04230B402168606A88
:100D000003434B602368E16A19612168CB69084895
:100D10000340CB61002363650133A354002010BD61
:100D200050330022C254FFF7BFFFC6E70120F6E7A9
:100D3000FFF7FFFF30B583B0040068460025C5808B
:100D40005120205C012804D05120205C222800D0B2
:100D5000A8E1002900D1A8E1002A00D1A7E1002BD9
:100D600000D1A6E15020205C012800D1A3E1502051
:100D7000012525540130205C012868D000206065E1
:100D8000A263A387E3872163A386E386A064E0646C
:100D900080239B01A26A9A425DD023681A6852069A
:100DA00003D41A6840210A431A6080231B01E268B9
:100DB0009A425CD06368002B07D082225200934293
:100DC0000DD1E38E9BB2012B09D1236B5A1C2263F8
:100DD00022681B78D360E38E013B9BB2E386E38EEF
:100DE0009BB2002B00D0ECE080239B01A26A9A42C8
:100DF00000D1CCE0069B002201212000FFF7DCFEA1
:100E0000002800D061E12368DB68A26B1370E38FD8
:100E1000013B9BB2E38780239B01A26A9A4200D1E7
:100E20000DE1069B012280212000FFF7C5FE00286E
:100E300000D019E151230122E25480239B01A26AD0
:100E40009A4200D116E150230022E2542BE15030A7
:100E50003135255492E722681368A0490B4013608E
:100E60002268116880239B010B43136095E7636838
:100E7000002B07D08222520093420ED1E38E9BB208
:100E8000012B0AD12368226B1288DA60236B0233AC
:100E90002363E38E013B9BB2E386E38E9BB2002B80
:100EA00034D180239B01A26A9A4214D0069B00226F
:100EB00001212000FFF780FE002800D0FDE023681C
:100EC000DB68A26B1380A36B0233A363E38F013B48
:100ED0009BB2E3879FE72268116880235B010B4385
:100EE0001360E3E7069B002201212000FFF764FE68
:100EF000002800D0E5E02368DB68A26B1380A36BB9
:100F00000233A363E38F013B9BB2E387E38E9BB283
:100F1000002B23D0069B002202212000FFF74CFE6D
:100F2000002800D0CBE02368226B1288DA60236BA4
:100F300002332363E38E013B9BB2E386E38E9BB2D5
:100F4000002BCFD180239B01A26A9A42CAD122688A
:100F5000116880235B010B431360C3E76368002BB8
:100F600000D058E7069B002201212000FFF724FE55
:100F7000002800D0A7E02368DB68A26B1380A36B76
:100F80000233A363E38F013B9BB2E38743E722680D
:100F9000116880235B010B4313602BE7069B002243
:100FA00001212000FFF708FE002800D091E023680F
:100FB000DA68A36B591CA1631A70E38F013B9BB2E3
:100FC000E387E38E9BB2002B22D0069B00220221F6
:100FD0002000FFF7F1FD002800D078E0236B5A1CB9
:100FE000226322681B78D360E38E013B9BB2E386C9
:100FF000E38E9BB2002BD1D180239B01A26A9A423F
:10100000CCD12268116880235B010B431360C5E7D4
:101010006368002B00D0FEE6069B00220121200021
:10102000FFF7CAFD002856D12368DA68A36B591C64
:10103000A1631A70E38F013B9BB2E387EBE6069B4B
:10104000002201212000FFF7B7FD002806D1236808
:10105000DB689BB26A46D380D388E2E6636D0222E6
:101060001343636503201EE0636D20221343636511
:10107000032018E023689A68D20600D4E3E6626D84
:1010800002210A4362651A6814490A401A602268FC
:10109000116880239B010B43136050230022E2540C
:1010A000012000E0022003B030BD0120FBE7012059
:1010B000F9E70120F7E70220F5E70320F3E7032033
:1010C000F1E70320EFE70320EDE70320EBE7032040
:1010D000E9E70320E7E70320E5E7C046FFDFFFFF7E
:1010E000F0B5C64600B5002338E0052600E000262E
:1010F000AE4035003D430234A400584EA551584C33
:1011000025684246D4432E0026404A68D20302D5C1
:10111000424615432E00524D2E606D682E0026402B
:101120004A68920302D5424615432E004C4D6E602C
:10113000AD682E0026404A68D20202D542461543C9
:101140002E00474DAE60ED682C404A68920202D5F1
:1011500042462A431400424AD46001330A6814000C
:10116000DC4077D001249C4022409046F5D04D6869
:10117000022D01D0122D0ED1DD080835AD002F58FB
:1011800007261E40B6000F22B24097430A69B240BC
:1011900016003E432E504D686E1E012E03D9112DB0
:1011A00001D0122D12D185685F000326BE40B543E1
:1011B0002E00CD68BD40354385604568A5434A682B
:1011C0001609012434409C402C43446007685E00AB
:1011D00003242500B540ED432F404A681440B44035
:1011E0003C430460C46825408C68B4402C43C46010
:1011F0004A68D200B1D51B4D6C6B012634436C6339
:101200009C08A51CAD00154EAF5903261E40B50025
:101210000F26AE40B743A026F605B04200D166E7E0
:10122000114EB0420ED0114EB0420DD0104EB04211
:101230000CD0104EB0420BD00F4EB04200D154E74C
:10124000062655E7012653E7022651E703264FE716
:1012500004264DE704BC9046F0BDC04600000140A6
:10126000000401400010024000040050000800503B
:10127000000C005000100050001C0050002A01D14A
:10128000816270478161FCE710B5054B5B691842CC
:1012900000D110BD024B586104F070F9F9E7C04667
:1012A0000004014070B504000E00150003689B693E
:1012B000DB0616D523689A69920614D4731CF9D0FC
:1012C000002E04D000F0CAFF401BB042F2D94123E7
:1012D0002022E25400232232A354023AA3540320D2
:1012E00024E0002022E01022DA6123681032DA6163
:1012F00023689A69920701D500229A6223689A6945
:10130000D20703D49A6901210A439A61226853687B
:1013100007490B405360042363643D332022E254A9
:1013200000232232A354023AA354012070BDC046C8
:1013300000E800FEF8B506000C0017001D00336839
:101340009B6923401B1B5A425341BB4213D16B1C68
:10135000F5D0002D05D000F081FF069BC01AA842F1
:10136000EDD941232022F25400232232B354023A11
:10137000B354032000E00020F8BD70B505000C0058
:1013800016002B689B699B061AD4320021002800A6
:10139000FFF788FF002815D1002C04D000F05EFF75
:1013A000801BA042EDD96B6C202213436B64412358
:1013B000EA5400232232AB54023AAB54032070BDEE
:1013C0000020FCE70120FAE770B504000D001600CC
:1013D00023689B695B072DD4320029002000FFF7AA
:1013E00061FF002828D123689A69920611D4002D44
:1013F00004D000F033FF801BA842E9D9636C20229F
:10140000134363644123E254013B0022E25403206E
:1014100070BD2022DA6121684B68084803404B60A8
:1014200000236364412162542232A354023AA3543C
:101430000120EDE70020EBE70120E9E700E800FEEE
:1014400070B504000D00160023689B699B0724D427
:10145000320029002000FFF725FF002818D16B1C5F
:10146000F2D0002D04D000F0F9FE801BA842EBD989
:10147000636C2022134363644123E254002322322D
:10148000A354023AA354064803F0F2FC032005E0FB
:10149000044803F0EDFC012000E0002070BDC046D0
:1014A0001CCB0008D8CA000810B5041E59D041232F
:1014B000C35C002B43D041232422E25422681368EA
:1014C00001218B4313602268274B61680B40136135
:1014D0002268936825490B409360E368012B34D060
:1014E000226884231B02A1680B439360E368022BEC
:1014F00032D0226851681E4B0B4353602268D36878
:101500001A490B40D360236962691343A26912022E
:1015100021681343CB602268E369216A0B4313609F
:101520002268136801210B43136000236364412286
:101530001F31A15423630132A354002010BD403356
:101540000022C25404F0A0F8B5E7226880231B02F1
:10155000A1680B439360C9E72368802212015A6097
:10156000C7E70120EAE7C046FFFFFFF0FF7FFFFF6C
:1015700000800002F0B585B004000D001700039351
:101580004123C35C202B00D0BDE02033C35C012B82
:1015900000D1BBE040230122C25400F05FFE0600F0
:1015A00023689A6912040ED500F058FE801B192892
:1015B000F6D941232022E25400232232A354023AD6
:1015C000A3540320A0E041222121A154013211396A
:1015D000A1540022626467626946898961856263F9
:1015E000628D92B2FF2A0ED9FF2222855A684B499A
:1015F0000A40A805800DFF2109040843484901431A
:101600000A435A6026E0628D92B22285D2B25968AE
:1016100042480140A805800D12040243414802439C
:101620000A435A6016E0636C042B00D070E001207E
:101630006AE0638D9BB22385DBB2206842683A4939
:101640000A40A905890D1B040B43802189040B4323
:1016500013434360638D9BB2002B38D032000A994C
:101660002000FFF7EDFE0028DDD1636A5A1C62629C
:1016700022681B789362638D013B9BB26385238D47
:10168000013B9BB22385002BE4D1638D9BB2002BE1
:10169000E0D000960A9B002280212000FFF74AFE3E
:1016A000002837D1638D9BB2FF2BC2D9FF2323853E
:1016B000206843681C4A1340A905890DFF221204C3
:1016C0001143802252040A4313434360C2E73200AD
:1016D0000A992000FFF751FE002804D0636C042B08
:1016E0001AD1012010E023682022DA6121684B68BA
:1016F0000E4D2B404B604123E25400232232A35471
:10170000023AA35400E0022005B0F0BD0220FBE73E
:101710000320F9E70320F7E70320F5E7009800FC32
:101720000020008100200082009C00FC00E800FEF8
:10173000F0B585B004000D00170003934123C35C8E
:10174000202B00D0BDE02033C35C012B00D1BBE0D7
:1017500040230122C25400F081FD060023689A69EB
:1017600012040ED500F07AFD801B1928F6D941230A
:101770002022E25400232232A354023AA35403202D
:10178000A0E041222221A15401321239A1540022A9
:10179000626467626946898961856263628D92B21B
:1017A000FF2A0ED9FF2222855A684B490A40A80514
:1017B000800DFF2109040843484901430A435A6048
:1017C00026E0628D92B22285D2B259684248014029
:1017D000A805800D12040243414802430A435A609F
:1017E00016E0636C042B00D070E001206AE0638D8A
:1017F0009BB22385DBB2206842683A490A40A905BA
:10180000890D1B040B43802189040B431343436060
:10181000638D9BB2002B38D032000A992000FFF76D
:10182000D3FD0028DDD123685A6A636A591C6162BE
:101830001A70238D013B9BB22385628D013A92B2CF
:101840006285002BE4D1638D9BB2002BE0D0009623
:101850000A9B002280212000FFF76CFD002837D171
:10186000638D9BB2FF2BC2D9FF2323852068436879
:101870001C4A1340A905890DFF221204114380223E
:1018800052040A4313434360C2E732000A9920001E
:10189000FFF773FD002804D0636C042B1AD10120DC
:1018A00010E023682022DA6121684B680E4D2B403E
:1018B0004B604123E25400232232A354023AA35442
:1018C00000E0022005B0F0BD0220FBE70320F9E7AD
:1018D0000320F7E70320F5E7009800FC00240081CF
:1018E00000240082009C00FC00E800FE30B51B4B89
:1018F000DB68F022134022D1184A926BD2000ED539
:10190000174A1268C02149010A40C02149018A4290
:1019100016D1C0221202904212D1012310E00F49C9
:101920008C6B8022520522438A630D4A1268C024C0
:10193000640122408C6B0B4D2C408C63E5E7002347
:101940000948026801218A431A4302600268114073
:10195000994201D0012030BD0020FCE70010024078
:1019600000700040FFFFFFEF0020024070B582B022
:1019700004000368DB0741D5BB4BDA680C23134036
:10198000082B33D0B84BDA680C2313400C2B29D02A
:10199000636880225202934258D0A022D20293421E
:1019A0005BD0B14B1A68B1490A401A601A688021AD
:1019B00049020A400192019A1A68AD490A401A6028
:1019C0006368002B55D000F049FC0500A64B1B684E
:1019D0009B0313D400F042FC401BA64B9842F5D960
:1019E000032069E2A04BDB68DB03D1D59E4B1B686B
:1019F0009B0303D56368002B00D156E223689B0745
:101A00005BD5994BDA680C231340042B44D0964BDA
:101A1000DA680C2313400C2B3AD0E368002B00D17A
:101A2000AEE091490A680920824313430B6000F03D
:101A300015FC05008C4B1B685B0700D597E000F098
:101A40000DFC401B0228F5D9032035E2864A1168B7
:101A500080235B020B431360B2E7834B196880223B
:101A6000D2020A431A601968802252020A431A609D
:101A7000A6E700F0F3FB05007B4B1B689B03BDD57D
:101A800000F0ECFB401B7B4B9842F5D9032013E29E
:101A9000754BDB68DB03C0D4734B1B685B0704D555
:101AA000E368012B01D0012006E26F494B68724ABE
:101AB00013402269120213434B602368DB063BD5B7
:101AC000694BDB680C221A4200D080E0664B1B6831
:101AD0009B0503D5E369002B00D1E8E1606A624B06
:101AE0005B68E0221202134098425CD9FFF7FEFEC9
:101AF000002800D0DDE15C4A536860490B40616A10
:101B00000B43536053681B021B0A216A09060B43EF
:101B10005360636A5A0B013280231B029340524A7E
:101B2000D16809090F220A4055498A5CD340554AB9
:101B30001360032003F0C6FC23681B0700D4A5E054
:101B40006369002B7CD0484A136D01210B43136558
:101B500000F084FB0500444B1B6D9B0700D595E00E
:101B600000F07CFB401B0228F5D90320A4E13E498C
:101B70004B68414A13402269120213434B609CE7B1
:101B8000394A136801218B43136000F067FB05009D
:101B9000354B1B685B0790D500F060FB401B0228AB
:101BA000F6D9032088E1304A536834490B40184382
:101BB000506053681B021B0A216A09060B435360DD
:101BC000606AFFF793FE0028A3D0012074E1E36967
:101BD000002B22D0244A116880235B000B43136042
:101BE00000F03CFB0500204B1B689B0506D400F071
:101BF00035FB401B0228F6D903205DE11A4A5368E1
:101C00001E490B40616A0B43536053681B021B0A59
:101C1000216A09060B4353608EE7134A13681A4979
:101C20000B40136000F01AFB05000F4B1B689B056F
:101C300082D500F013FB401B0228F6D903203BE1BC
:101C4000094A136D01218B43136500F007FB050062
:101C5000054B1B6D9B0719D500F000FB401B0228AC
:101C6000F6D9032028E1C04600100240FFFFFEFF26
:101C7000FFFFFBFF88130000FFE0FFFFFF1FFFFFD8
:101C800090CD000830000020FFFEFFFF23685B07B7
:101C900078D58B4B9B6BDB001BD4894A916B8023DF
:101CA0005B050B4393630125864B1B68DB0512D54F
:101CB000A36880225200934221D0002B37D1804B61
:101CC0001A6D81490A401A651A6D80490A401A65E1
:101CD0001BE00025E8E77B4A116880235B000B438B
:101CE000136000F0BBFA0600764B1B68DB05DFD4FF
:101CF00000F0B4FA801B6428F6D90320DCE0704AB7
:101D0000116D80235B000B431365A368002B28D063
:101D100000F0A4FA06006A4B1B6D9B0530D400F05E
:101D20009DFA801B6A4B9842F5D90320C4E0A0229B
:101D3000D200934209D0624B1A6D63490A401A657A
:101D40001A6D62490A401A65DFE75D4B196D013A69
:101D5000FF3A0A431A65196D802252000A431A6538
:101D6000D3E700F07BFA0600554B1B6D9B0507D5AA
:101D700000F074FA801B564B9842F5D903209BE083
:101D8000012D21D023689B063CD5A369002B21D0CF
:101D90004B4B99680120014399605A6B02435A6387
:101DA0004C4A116A80239B010B43136200F056FAE0
:101DB0000500434B9B689B0724D400F04FFA401B5F
:101DC0000228F6D9032077E03D4A936B42490B4045
:101DD0009363D7E73A4A936801218B4393603D4A66
:101DE000136A3E490B40136200F038FA0500344B89
:101DF0009B689B0706D500F031FA401B0228F6D9F4
:101E0000032059E0A36A002B55D02D4AD1680C223B
:101E10000A400C2A52D0022B12D0294A13683049AA
:101E20000B40136000F01AFA0400254B1B689B015D
:101E300039D500F013FA001B0228F6D903203BE045
:101E40001F4A136826490B40136000F007FA05008B
:101E50001B4B1B689B0106D500F000FA401B0228B3
:101E6000F6D9032028E01649CB681E4A1340E26ADF
:101E7000206B0243606B02431343CB600A688023EC
:101E80005B0413430B6000F0E9F904000C4B1B6882
:101E90009B0106D400F0E2F9001B0228F6D90320CA
:101EA0000AE0002008E0002006E0012004E0012014
:101EB00002E0012000E0002002B070BD0120FBE73D
:101EC0000010024000700040FFFEFFFFFFFBFFFF1D
:101ED0008813000000000140FFFFFFEFFFDFFFFF5E
:101EE000FFFFFFFEFFFF02FF10B5264BD9680C2352
:101EF0000B40082B42D00C2B11D0042B09D0214BC6
:101F00005A68520B07231340013380200002984087
:101F100010BD1C4B1B68DB0632D51B48F8E78A0C4A
:101F20000F231340194AD05C890D0322114001315F
:101F3000144BDB68DB030DD4124B1B68DB0613D597
:101F40004201121A93019B1ADB001B181802FEF7BC
:101F5000B7F8DDE74201121A93019B1ADB001B1848
:101F60005802FEF7ADF8D3E74201121A93019B1A0B
:101F7000DB001B189802FEF7A3F8C9E70448C7E77F
:101F80000448C5E70010024000093D00A8CD000844
:101F900000127A000024F40070B504000D005F4BBD
:101FA0001A68012313408B420BD25C490B68012253
:101FB00093432B430B600B681A40AA4201D00120C7
:101FC00070BD23689B0706D5554AD368F0218B4323
:101FD000A1680B43D3602368DB0764D56368022BD9
:101FE00009D0032B29D0012B2DD04D4A1268920520
:101FF00006D40120E4E74A4A1268920300D48AE03A
:102000004749CA68032082431343CB6000F026F996
:1020100006006368022B1CD0032B28D0012B34D080
:102020003F4BDB680C221A423DD000F017F9801BB1
:102030003C4B9842F4D90320C2E7394A1268920116
:10204000DED40120BCE7364A12685207D8D40120FA
:10205000B6E7334BDA680C231340082B23D000F08B
:10206000FDF8801B2F4B9842F3D90320A8E72C4B97
:10207000DA680C2313400C2B15D000F0EFF8801B0E
:10208000284B9842F3D903209AE7254BDA680C23B2
:102090001340042B07D000F0E1F8801B214B98423D
:1020A000F3D903208CE71D4B1A6801231340AB4280
:1020B0000BD91A490B68012293432B430B600B6821
:1020C0001A40AA4201D001207AE723685B0706D5AF
:1020D000134AD36814490B40E1680B43D36023686B
:1020E0001B0707D50E49CB68104A13402269D2005E
:1020F0001343CB60FFF7F8FE094BDA6812090F2390
:1021000013400B4AD35CD8400A4B1860032003F0FD
:10211000D9F9002054E7012052E7C04600200240D0
:102120000010024088130000FFF8FFFFFFC7FFFF09
:1021300090CD000830000020054B1868054BDA6888
:10214000120A07231340044AD35CD8407047C046A4
:102150003000002000100240A0CD0008054B186898
:10216000054BDA68D20A07231340044AD35CD840EF
:102170007047C0463000002000100240A0CD00088B
:10218000F0B54123C35C202B20D12033C35C012B4D
:102190001ED04024012202554125242343550668C0
:1021A000336893433360066833680A4F3B403360BB
:1021B000066833681943316001680B6813430B608C
:1021C0002023435500230355002000E00220F0BDEA
:1021D0000220FCE7FFEFFFFFF0B54123C35C202B9B
:1021E0001ED12033C35C012B1CD040240122025598
:1021F00041252423435506683368934333600668BA
:102200003368094F3B4009021943316001680B688C
:1022100013430B602023435500230355002000E0A7
:102220000220F0BD0220FCE7FFF0FFFF10B5064AD8
:10223000136802210B431360032003F043F903F0FA
:102240004BF9002010BDC04600200240024A13682E
:10225000013313607047C046780A0020014B1868AC
:102260007047C046780A0020024A536801218B4318
:102270005360704700580140024A536802218B4363
:102280005360704700580140024A536804218B4351
:10229000536070470058014030B52023C35C012BC8
:1022A00017D020230124C454212102224254026861
:1022B000CA2555620268773D55620568AA681A43C7
:1022C000AA600268FF25556244540022C2540020CF
:1022D00030BD0220FCE70000F8B504000168836807
:1022E0000269134342691343C26913430A68BE4833
:1022F000024013430B6022685368BC490B40E168FD
:102300000B435360A1692268B94B9A4201D0236AFA
:1023100019439368B74803400B4393602368B64A58
:10232000934220D0B54A934231D0B54A934263D00C
:10233000B44A934262D0AE4A93423DD01025022067
:1023400000F006FC2668AA4B9E425BD080231B024D
:10235000E2699A4200D190E0082D00D966E1AD0013
:10236000A94B5B599F46A94BDA6C03231340012B01
:1023700009D0002B05D0022B3AD0032B05D0102515
:10238000DDE70125DBE70425D9E70825D7E79F4BE3
:10239000DA6C0C231340042B0AD005D9082B29D062
:1023A0000C2B07D10825CAE7002B03D10025C6E76F
:1023B0000425C4E71025C2E7944BDB6CC022120150
:1023C00013408022D20093420ED009D980221201FC
:1023D000934215D0C0221201934207D10825AEE7DF
:1023E000002B03D10025AAE70425A8E71025A6E7BE
:1023F0000225A4E70225A2E70025A0E700259EE725
:1024000002259CE7022D2DD007D9042D30D0082DB0
:1024100000D0DFE08020000207E0002D00D0D9E0EE
:10242000FFF78AFE002800D1D6E0626853009B18AF
:10243000834200D9D2E01303834200D2D0E0070EDA
:10244000060250080021801979410023FDF736FF6C
:102450006F4BC2186F4B9A4200D9C3E02368D86013
:10246000002022E0694B1B68DB0604D46A48DCE7E5
:10247000FFF73AFDD6E76948D7E7082D54D8AD00F5
:10248000674B5B599F46400063685B08C0186168F2
:10249000FDF716FE83B200200F22190091435B1056
:1024A000083A13400B432268D360F8BDFFF756FE8D
:1024B000400063685B08C0186168FDF701FE83B2E5
:1024C0000020E9E7514B1B68DB060AD56368580812
:1024D000544B9C4660446168FDF7F2FD83B20020D6
:1024E000DAE763685808504B9C4660446168FDF722
:1024F000E7FD83B20020CFE7FFF7F6FC40006368FA
:102500005B08C0186168FDF7DBFD83B20020C3E7FC
:102510006368580880235B029C4660446168FDF74D
:10252000CFFD83B20020B7E701200023B4E7FFF717
:1025300003FE63685B08C0186168FDF7C1FD23688E
:102540000004000CD8600020AFE7FFF707FE6368C7
:102550005B08C0186168FDF7B3FD23680004000C38
:10256000D8600020A1E7294B1B68DB060BD561680A
:1025700048082A4B9C466044FDF7A2FD0004000C6D
:10258000F060002091E761684808234B9C46604456
:10259000FDF796FD0004000CF060002085E7FFF7D2
:1025A000A3FC63685B08C0186168FDF789FD2368B8
:1025B0000004000CD860002077E761684808802399
:1025C0001B029C466044FDF77BFD0004000CF0609C
:1025D00000206AE7012068E7002066E7012064E741
:1025E000012062E7012060E7F369FFEFFFCFFFFF03
:1025F00000480040FFF4FFFF003801400044004065
:10260000004C00400050004048CB00080010024041
:1026100000FDFFFFFFFC0F000024F40000093D0057
:102620006CCB000800127A000048E80101203CE76A
:10263000436ADB0706D5026853682C490B40816A60
:102640000B435360436A9B0706D5026853682849C9
:102650000B40C16A0B435360436A5B0706D50268AF
:10266000536824490B40016B0B435360436A1B07BB
:1026700006D50268536820490B40416B0B435360F9
:10268000436ADB0606D5026893681C490B40816BE0
:102690000B439360436A9B0606D50268936818490A
:1026A0000B40C16B0B439360436A5B060BD502681A
:1026B000536814490B40016C0B43536080235B0348
:1026C000026C9A420AD0436A1B0606D50268536818
:1026D0000D490B40816C0B4353607047026853688F
:1026E0000A490B40416C0B435360ECE7FFFFFDFFD1
:1026F000FFFFFEFFFFFFFBFFFF7FFFFFFFEFFFFF7F
:10270000FFDFFFFFFFFFEFFFFFFFF7FFFFFF9FFF71
:10271000F0B5C64600B506000C0017009846069DA9
:102720003368DB6923401B1B5A425341BB421ED115
:102730006B1CF5D0002D05D0FFF790FD4346C01A65
:10274000A842EDD9326813680B490B401360326818
:102750009368A331FF318B43936020236922B354E4
:102760000132B35448330022F254032000E0002029
:1027700004BC9046F0BDC0465FFEFFFFF0B585B0DB
:1027800004000E0017001D006923C35C202B59D1E3
:1027900000295AD0002A5AD080235B0182689A42CD
:1027A00013D06823E35C012B53D068230122E25449
:1027B0000023E36669332032E254FFF74FFD0390B4
:1027C0005023E7520233E7520AE00369002BE8D1B5
:1027D000CB07E6D5012036E0327823689A620136CD
:1027E0005223E35A9BB2002B1CD05222A35A013B26
:1027F0009BB2A3520095039B002280212000FFF78B
:1028000087FF002827D180235B01A2689A42E3D189
:102810002369002BE0D133882268DB05DB0D93624E
:102820000236DDE70095039B002240212000FFF7E0
:102830006FFF002811D169232022E254013B0022BE
:10284000E25400E0022005B0F0BD0120FBE70120CA
:10285000F9E70220F7E70320F5E70320F3E700009C
:1028600030B583B004000023C366FFF7F7FC050012
:1028700023681B681B070ED423681B685B0717D4EB
:1028800020236922A3540132A35448330022E25486
:10289000002003B030BD80210C4B009303000022C8
:1028A00089032000FFF734FF0028E5D00320F0E77C
:1028B0008021064B00932B000022C9032000FFF764
:1028C00027FF0028DCD00320E3E7C046FFFFFF011D
:1028D00010B5041E30D06923C35C002B22D06923BD
:1028E0002422E2542268136801218B431360636A37
:1028F000002B1DD12000FFF7EFFC012811D022682A
:1029000053680E490B405360226893682A218B4319
:1029100093602268136829390B4313602000FFF786
:102920009FFF10BD68330022C25402F04BFBD6E774
:102930002000FFF77DFEDDE70120F2E7FFB7FFFF94
:1029400070B5040082231B0102681A425AD0754BED
:102950009B6BDB0000D59DE0724A916B80235B0589
:102960000B4393630125704B1B68DB0500D493E098
:102970006C4B1A68C0239B031A4061680B4093425A
:1029800000D19EE0C0239B020A001A409A4200D167
:102990009FE0644B1B6DC022920213401FD0114078
:1029A000994202D02268920608D4C0229202A168FD
:1029B0000A409A4213D023681B0510D5594B186D55
:1029C0005A4A02401E6D8021090331431965196D71
:1029D000574E314019651A65C30500D580E063681C
:1029E000C022920219001140914200D188E04D4965
:1029F0000B6DC02292026068024013430B65012DEB
:102A000000D187E02368DB0706D5464AD36C032153
:102A10008B43E1680B43D36423689B0706D5414A87
:102A2000D36C0C218B4321690B43D36423685B0770
:102A300006D53C4AD36C3F490B4061690B43D364D4
:102A400023681B0706D5374AD36C3B490B40A16965
:102A50000B43D3642368DB0506D5324AD36C334974
:102A60000B40E1690B43D36423685B0606D52D4A0E
:102A7000D36C32490B40616A0B43D36423681B0655
:102A80004ED5284AD36C2E490B40216A0B43D364A0
:102A9000002070BD002566E7234A116880235B0093
:102AA0000B431360FFF7DAFB06001F4B1B68DB05C7
:102AB00000D55DE7FFF7D2FB801B6428F5D9032022
:102AC000E7E7C0239B03A0680340934200D059E787
:102AD0005FE7144B1B689B0300D45AE70120D8E73B
:102AE000FFF7BCFB06000F4B1B6D9B0500D576E77F
:102AF000FFF7B4FB801B134B9842F4D90320C8E7BF
:102B000008490A6810480240C0208003034013436C
:102B10000B606CE70A008B6B0C490B40936371E709
:102B20000020B6E70010024000700040FFFFFCFFED
:102B3000FFFFF7FFFFF3FFFFFFCFFFFFFFFFFFFBED
:102B4000FFFFF3FF88130000FFFFCFFFFFFFFFEF42
:102B500010B5102800D120E12ED8022800D1CAE0FB
:102B600017D9042800D1E5E0082859D19E4BDB6C29
:102B7000C0229201134000D102E1802292019342CF
:102B800000D100E180225201934200D102E10020F5
:102B900047E0012844D1944BDA6C0323134000D161
:102BA00096E0022B00D196E0012B00D19AE0032B96
:102BB00000D19AE0002034E0402859D016D9802373
:102BC0005B00984228D1884BDB6CC02292021340F4
:102BD00000D1EBE080229202934200D1E9E0802212
:102BE0005202934200D1EBE000201AE0202817D1D6
:102BF0007D4B196D1B6DC022920213408022520240
:102C000093420FD080229202934210D0C0229202AF
:102C1000934210D0002004E080231B019842E7D0AB
:102C2000002010BD8A05EDD580200002F9E78A0753
:102C3000ECD56E48F5E76C4B1B689B0300D4C2E0F3
:102C4000694B1B68C0229203134080229203934277
:102C500000D1BAE0C0229203934205D080225203F1
:102C6000934203D06248DCE76248DAE76248D8E77B
:102C70005D4BDB6C8022D20413401FD15A4A12688C
:102C800092011BD5584BD868D968800C0F2202409E
:102C90005A48805C8A0D032111400131DB68DB0357
:102CA00007D4514B1B68DB0601D4554B02E0504B57
:102CB00000E0544B5843FDF703FAB2E7002B00D174
:102CC00085E0494B9B689B0700D582E00020A8E780
:102CD000FFF744FAA5E7444A1268520700D463E7B5
:102CE00047489EE7FFF700F99BE73F4B1B6D9B05AD
:102CF00071D4002095E73C4BDA6C0C23134007D0CD
:102D0000082B08D0042B0CD00C2B0DD0002088E70A
:102D1000FFF712FA85E7344A12685207F2D53848AD
:102D20007FE7FFF7E1F87CE72F4B1B6D9B0555D440
:102D3000002076E72C4BDB6CC022120113400DD033
:102D40008022120193420CD08022D20093420ED0F6
:102D5000C022120193420DD0002062E7FFF7ECF988
:102D60005FE7214A12685207EED5254859E7FFF779
:102D7000BBF856E71C4B1B6D9B0532D4002050E777
:102D8000FFF7DAF94DE7184A1268520700D4F9E65E
:102D90001B4846E7FFF7A8F843E7134B9B6B5B0222
:102DA00001D400203DE7FFF7C7F93AE7FFF7C4F980
:102DB00037E70D4A1268520700D410E7104830E791
:102DC000FFF792F82DE700202BE70F4829E70020B6
:102DD00027E70E4825E78020000222E78020000236
:102DE0001FE7802000021CE70010024088900000CE
:102DF00000093D0020A1070080841E00A8CD000826
:102E00000024F40000127A0040420F00006CDC0243
:102E1000034A11688023DB000B4313607047C046F0
:102E200000700040034A116880239B000B4313602D
:102E30007047C046007000400020704770477047E0
:102E4000032803D0034B00221A707047014B012264
:102E50001A70FAE7AC0B00200120704770B504002F
:102E6000092000F057F906005A2000F053F9050038
:102E700076B2631C11DB0E2C00DD0E247021314074
:102E8000013464B20F231C402143092000F0E2F812
:102E900029005A2000F0DEF870BD01246442EDE7FD
:102EA00010B586B01422002101A803F081FE11485C
:102EB00000F07EF8104B0293022303930133049336
:102EC0008021A02001AAC900C00502F001FC0B4C22
:102ED00001AA0821200002F0FBFB01AA202120000A
:102EE00002F0F6FB01AA1021200002F0F1FB06B06F
:102EF00010BDC0460000002000001110000400506A
:102F000010B586B01422002101A803F051FE0E4B2B
:102F10000293022303938021A02001AAC900C005C7
:102F200002F0D6FB094C01AA0821200002F0D0FBD8
:102F300001AA2021200002F0CBFB01AA10212000D1
:102F400002F0C6FB06B010BD0000111000040050D6
:102F500070B504008021A02023680022C900C005AC
:102F600002F006FC094D636800220821280002F0E7
:102F7000FFFBA36800222021280002F0F9FBE36890
:102F800000221021280002F0F3FB70BD0004005065
:102F9000064B5B79002B07D1044A3033D35C002BFE
:102FA00002D130330121D1547047C046AC0B002010
:102FB000014B18607047C0467C0A0020014B18790D
:102FC0007047C046AC0B002010B586B0142200211B
:102FD00001A803F0EDFD0123029302330493A02422
:102FE000E40501AA0121200002F072FB0122012167
:102FF000200002F013FC012001F0CCFD002302931D
:1030000001AA0121200002F063FB062001F0C2FDAD
:1030100006B010BD70B504000E001500002240215E
:103020000B4802F0FBFB802040422043C0B202F07C
:1030300077FC002404E0305D02F072FC0134E4B25D
:10304000AC42F8D301224021014802F0E7FB70BDF9
:103050000004005000B583B06B46D97107330122DC
:103060001900FFF7D7FF03B000BD000030B583B0F3
:103070000500154B98601549FDF722F80402134925
:103080002800FDF759F80802114B9C4660440F498F
:10309000FDF716F82418230C6A46D11D0B70012287
:1030A0000620FFF7B7FF230A6A46911D0B70012225
:1030B0000720FFF7AFFF6B46591D0C700122082057
:1030C000FFF7A8FF03B030BDAC0B0020093D0000A6
:1030D000841E000070B504000E001500002240217F
:1030E0000B4802F09BFB7F20204002F019FC0024DB
:1030F00005E0002002F014FC30550134E4B2AC428B
:10310000F7D301224021024802F088FB70BDC0467F
:103110000004005010B582B06B46DC1D0122210076
:10312000FFF7D8FF207802B010BD0000F0B587B0DF
:103130000C00002803D0012862D0002054E07F4E0C
:10314000358C04ABDF1D012239002720FFF7C2FFB9
:103150003878F82398430130281809F06BFB2223B4
:10316000F35C002B42D00022002307F0BFFF0600D3
:103170000F0004ABDD1D012229003020FFF7AAFF5C
:103180002B78F922934334D000226D4B3000390064
:1031900007F0ACFF06000F00200009F04BFB3200E7
:1031A0003B0007F0A3FF654A2423D35C002B23D107
:1031B0000022002307F09AFF0022624B08F0E6FD90
:1031C00004000D005D4BD86909F068FB02000B009C
:1031D0002000290008F062FA00225B4B08F0D6FDBF
:1031E00007F0FAFC07F080FD07B0F0BD0022544B59
:1031F000BBE700220023C9E700228023DB05D9E7D3
:103200004E4B5B6C012B00D182E0002B00D189E09A
:10321000022B00D181E00022002300920193474D50
:10322000AE6C0120B04009F005FB02000B000098D5
:10323000019908F033FA02000B000020404908F021
:103240002DFA009001914E23E85A09F0F3FA00227A
:103250003E4B07F04BFF009A019B08F097FD029050
:103260000391E400B000241A5223E85C0001001925
:10327000023BEB5C002B5AD01424001B1C3009F0DD
:103280000DFB04000D002D4A4C23D35C002B50D0C5
:103290000220301A800009F001FB02000B00200020
:1032A000290008F0FBF907F067FB04000D00234A32
:1032B0004D23D05C043009F0BDFA02000B00200061
:1032C000290008F063FD04000D0000220023FCF734
:1032D000BDFF00282FD000221A4B2000290007F044
:1032E00005FF009A019B08F051FD02000B000298B7
:1032F000039907F0FBFE0022134B08F047FD144A28
:10330000144B07F0F3FE07F0CBFB07F0EDFC6BE787
:103310000022114B0092019381E700220F4B009293
:1033200001937CE700220E4B0092019377E7002483
:10333000A3E70020ADE700200249D2E7AC0B002054
:103340000000F03F0000204000408F40000011408E
:103350002B8716D9CEF7EF3F80840E4180841E4123
:103360008084FE4010B582B0002804D001280FD020
:10337000012040420AE06B46DC1D012221001120A1
:10338000FFF7A8FE20784008404200B202B010BD0E
:103390006B46DC1D012221001B20FFF79BFE2078DD
:1033A0008B38F3E730B583B0051E1CD0114C236871
:1033B0001B690020984723685B69280098476B4683
:1033C000DC1D012221000120FFF784FE0020205691
:1033D0000723984328432070012221000120FFF792
:1033E00019FE03B030BD034B1B681B6901209847D1
:1033F000E5E7C0467C0A002010B5064801F084FCD1
:10340000054801F081FC0020FFF7CCFF034B0022B0
:103410001A7110BD980A0020140C0020AC0B00207B
:1034200010B5064801F070FC054801F06DFC012064
:10343000FFF7B8FF034B00221A7110BD980A002055
:10344000140C0020AC0B0020F0B585B00600804BBA
:103450005B79002B03D0012B59D000273EE07C4C38
:103460002623E75C0F256D44012229004020FFF749
:1034700031FE0022AA56032313400C2213436A464E
:10348000511D0B7001224020FFF7C4FD01222900CD
:103490004120FFF71FFE2A783F235B42134301A917
:1034A0000B7001224120FFF7B5FD012229003520D4
:1034B000FFF710FE2A783F2313403E22A3546B46A9
:1034C000D91C1E230B703D3A0D20FFF7A3FD0023EE
:1034D0003022A3540132A354A38763878022520071
:1034E00000215C4803F064FB594B01221A71002E45
:1034F00000D08FE0564B5B79002B00D193E0002F7A
:1035000000D0A0E00620FFF74DFF05B0F0BD504A07
:103510005523D35C002B48D00F246C44012221009A
:103520003320FFF7D7FD2378412213436A46D11D8C
:103530000B7001223320FFF76DFD6B46991D192397
:103540000B7001223B20FFF765FD414B56229F5C2B
:10355000033A9B5C002B44D00B2169441D230B7064
:10356000523A1120FFF756FD0F246C44012221002E
:103570004020FFF7AFFD2278332313400A2169442E
:103580000B7001224020FFF745FD0F216944002404
:103590000C7001220F20FFF73DFD0E2169440C70D5
:1035A00001220D20FFF736FD98E70F246C4401221D
:1035B00021003320FFF78EFD0023E3564122934381
:1035C00001221343092169440B7001223320FFF7C4
:1035D00021FD02A91D230B7001223B20FFF71AFDDC
:1035E000B3E70D2169441F230B7001221120FFF75F
:1035F00011FD0F246C44012221004020FFF76AFDD9
:1036000022783F23134003A90B7001224020FFF7CB
:1036100001FDBAE7104C3100200001F0B5FB20009D
:1036200001F0DAFA66E70520FFF7BCFE002F00D0B4
:103630006BE7074BD96A094C200001F0A5FB20007D
:1036400001F0CAFA61E70520FFF7ACFE5DE7C0466E
:10365000AC0B0020AC0A0020980A0020840A00204D
:1036600010B582B00100404801F08EFB3F4B5B7902
:10367000002B0CD0012B39D03C4B02221A713A4856
:1036800001F0AAFA0320FFF78DFE02B010BD6B46D1
:10369000DC1D012221004020FFF71CFD0022A25664
:1036A00003231340102213436A46D11C0B700122DE
:1036B0004020FFF7AFFC012221004120FFF70AFD67
:1036C00022783E2313406A46911C0B700122412050
:1036D000FFF7A0FC012221003520FFF7FBFC227838
:1036E0003F2313403E2221498B54C5E71F4A5323F1
:1036F000D35C002B1BD16B46D91DF7230B70012225
:103700001120FFF787FC6B469C1D01222100402001
:10371000FFF7E0FC0022A2563F2313404022134350
:103720002370012221004020FFF774FCA4E76B46C0
:10373000591DF5230B7001221120FFF76BFC6B461E
:10374000DC1D012221004020FFF7C4FC0022A2560C
:10375000332313404022134301A90B700122402060
:10376000FFF758FC88E7C046140C0020AC0B002083
:1037700030B583B0114B5B79012B1CD16B46D91D41
:10378000FA230B7001221120FFF744FC6B469C1DAD
:10379000012221004020FFF79DFC23780325AB4345
:1037A0002370012221004020FFF734FC034B1D71E0
:1037B0000720FFF7F7FD03B030BDC046AC0B00207B
:1037C00030B583B004006B46DD1D012229000120C5
:1037D000FFF780FC0023EB56002B2EDB2A4B002248
:1037E0005A71294B5B79A34225D0274B5C71012C80
:1037F00027D1FFF701FE6B46DC1D012221000120CD
:10380000FFF768FC227880235B4213432370012278
:1038100021000120FFF7FEFB6B46991D00240C7070
:1038200001224020FFF7F6FB6B46591D0C70012268
:103830004120FFF7EFFB03B030BD134B01225A715B
:10384000CFE7FFF7D9FD6B46DC1D012221000120E7
:10385000FFF740FC22787F23134001A90B7001225F
:103860000120FFF7D7FB6B46D91C00230B70012208
:103870004020FFF7CFFB6B46991C30230B700122D1
:103880004120FFF7C7FBD6E7AC0B002070B582B034
:103890001F4B18601F4C21001F4801F095F92100B3
:1038A0001E4801F091F921001D4801F08DF91D4CD1
:1038B00023681B6801209847FFF786FB0020FFF76D
:1038C00071FD23689B6818489847002410E0174D45
:1038D00066003619705DFFF773FFAD196878AB7835
:1038E0006A46D11D0B700122FFF794FB0134E4B24C
:1038F000102CECD90020FFF763FF0D4B00221A714A
:10390000084B1B685B689847023002B070BDC04628
:10391000800A0020794A0008140C0020980A002030
:10392000840A00207C0A002018000020A8CC00088F
:10393000AC0B0020F8B504000D0017001E00FFF7C7
:103940003FFF2800FFF792FB0520FFF72BFD01202A
:1039500001F020F901F02AFA0500280001F02CFA04
:10396000B04206D22000FFF7FDFCB842F5DD00248E
:1039700000E00124FFF740FD2000F8BD70B582B0E3
:103980000120FFF71DFF6B46991DFF230B700122DD
:103990001120FFF73FFB0520FFF704FD0026002460
:1039A00010E0012001F0F6F86B46DD1D0122290030
:1039B0002C20FFF78FFB2A7801231340A3401E43DE
:1039C0000134E4B21F2CECD9FFF716FD300002B031
:1039D00070BD0000F0B5DE4657464E464546E0B5A0
:1039E0008FB007000C001500009318AB04CB934672
:1039F0001B8899461AAB1B8804931BAB1B7898460F
:103A00001CAB1B789A461DAB1E781EAB1B78069329
:103A10001FAB1B78079320AB1B78029321AB1B785D
:103A20000593FFF7CDFE002F09D0012F00D1E6E06E
:103A30000FB03CBC90469946A246AB46F0BDE64F5F
:103A40007C61FD615B46BB6122234246FA5401332F
:103A50005246FA540133FE5401336A46127AFA543C
:103A600001336A46127DFA544B463B84280008F025
:103A700015FF0090019102000B000020D74907F0CC
:103A80000DFE0022D64B08F081F9029003910498B4
:103A900008F0D0FE029A039B08F078F90022D14B7F
:103AA00008F074F907F020F9F862009A019B0020F1
:103AB000CD4907F0F3FD07F017F985B22B0A08AAE4
:103AC000D11D0B7001220220FFF7A4FA08AB991D4B
:103AD0000D7001220320FFF79DFA002301E001335E
:103AE000DBB2142B16D8DA00C04812589442F6D331
:103AF0005A1CD20012589442F1D2DB00C3181B7931
:103B000008AA511D0B7001221220FFF783FA00232F
:103B1000584602E0FEE70133DBB2142B31D8D9005E
:103B2000B24C09598842F6D3591CC9000959884238
:103B3000F1D2DA00A3181B7909A90B700122132016
:103B4000FFF768FA4B461B0A08AAD11C0B7001222A
:103B50002520FFF75FFA08AB991C4B460B7001223A
:103B60002620FFF757FA4346002B0BD1092108AB5B
:103B70009C466144FF230B7001223220FFF74AFA72
:103B800007E0FEE70AA953460B7001223220FFF737
:103B900041FA172408AB9C466444012221003020DE
:103BA000FFF798FA0023E3566F2213404246002A9B
:103BB00022D00022134336011E430B2108AB9C4642
:103BC00061440E7001223020FFF724FA172408AB5D
:103BD0009C466444012221003120FFF77BFA2278C1
:103BE000402313430A2108AA944661440B70012222
:103BF0003120FFF70FFA1BE780225242DAE7764BBB
:103C00005C649D644D2269460978995401324946A5
:103C10009952023241469954013251469954013227
:103C20009E5401326946097E995401326946097FE2
:103C3000995401326946097A995401326946097DDD
:103C400099540C2D00D9BAE0052D00D8B9E0002C0C
:103C500004D12B000B3B012B00D8B7E0012C00D185
:103C6000B1E05D4A4C230021D154172708AB9C4694
:103C70006744012239001D20FFF72CFAA301DBB2B3
:103C8000009AD200D2B2134342469200D2B21343FA
:103C90007600F6B2334350494C228A5C13430CA998
:103CA0000B7001221D20FFF7B5F9012239001E20FB
:103CB000FFF710FA3A780C2313402A01D2B21343CB
:103CC000049C210A03220A4013430F2108AA9446A8
:103CD00061440B7001221E20FFF79CF90E2108ABF6
:103CE0009C4661440C7001221F20FFF793F94B465C
:103CF0001B0A0D2108AA944661440B700122202062
:103D0000FFF788F90BA94B460B7001222120FFF722
:103D100081F94346002B09D0112108AB9C46614430
:103D200053460B7001222220FFF774F92A4A5323CD
:103D3000D35C002B21D0172408AB9C46644401229D
:103D400021004B20FFF7C6F9227880235B42134302
:103D5000132108AA944661440B7001224B20FFF7FF
:103D600059F91D4A5423D35C122108AA9446614490
:103D70000B7001222420FFF74DF9062D38D11724AE
:103D800008AB9C466444012221003120FFF7A2F9D0
:103D90000023E3560722934305221343152108AA63
:103DA000944661440B7001223120FFF733F90DA9CD
:103DB0000C230B7001223720FFF72CF938E60C2575
:103DC00045E7062543E70C2D00D04AE7024A4C237D
:103DD0000121D15449E7C046AC0B00200000F03F60
:103DE0000000204000408F4080847E41F8CB0008D6
:103DF000172408AB9C466444012221003120FFF7C0
:103E000069F90023E35607229343032213432370E7
:103E1000012221003120FFF7FDF8162108AB9C4656
:103E200061440A230B7001223720FFF7F3F8FFE506
:103E3000F0B5DE4657464E464546E0B58BB0070026
:103E4000009102921C0014AB40CB1B78019316AB7F
:103E50001B88994617AB1B78984618AB1D7819AB91
:103E60001B789A461AAB1B7803931BAB1B789B46B7
:103E7000FFF7A6FCC54B1B68DB6800989847002F2E
:103E800009D0012F00D196E00BB03CBC904699467A
:103E9000A246AB46F0BDBE4B6A4612781A73029832
:103EA00018615C61DE614A461A84222241469954B7
:103EB00002329D540132594699541C9A9A6208F074
:103EC000EDFC0022B34B07F0E9FB06F00DFF84B2D6
:103ED000230A0B2104AA944661440B70012204209A
:103EE000FFF798F80A2104AB9C4661440C7001224C
:103EF0000520FFF78FF8300008F0D0FC02000B001F
:103F00000020A54907F0CAFB06F0EEFE84B2230AA2
:103F1000092104AA944661440B7001220220FFF794
:103F200079F806A90C7001220320FFF773F84B46BD
:103F30001B0A04AAD11D0B7001222520FFF76AF885
:103F400004AB991D4B460B7001222620FFF762F847
:103F5000172404AB9C466444012221003020FFF763
:103F6000B9F80022A2566F2313404246002A20D1FE
:103F70008022524213432D011D430D2104AB9C4668
:103F800061440D7001223020FFF744F8172404AB80
:103F90009C466444012221003120FFF79BF82378DE
:103FA0004022134307A90B7001223120FFF732F89A
:103FB0006AE70022DEE7764B402269460978995489
:103FC0005C649E640D326946097999540132494610
:103FD0009952023241469954033251469954013262
:103FE0006946097B9954023A9D54033259469954C3
:103FF0001C9A9A650C2E03D8052E02D8062600E0DE
:104000000C26002C03D133000B3B012B75D9012C5E
:1040100071D05F4A4C230021D1545346002B71D1FB
:10402000172704AB9C466744012239001D20FFF787
:1040300051F8A401E4B2019BDB00DBB21C43434610
:104040009B00DBB21C436D00EDB22543504A4C236C
:10405000D45C2543132104AB9C4661440D700122BE
:104060001D20FEF7D7FF012239001E20FFF732F88E
:104070003A780F2313403201D2B21343122104AA1B
:10408000944661440B7001221E20FEF7C3FF4B468D
:104090001B0A112104AA944661440B7001222020BE
:1040A000FEF7B8FF08A94B460B7001222120FEF74E
:1040B000B1FF062E49D0172404AB9C46644401226C
:1040C00021003120FFF706F80023E356072293432F
:1040D000032213432370012221003120FEF79AFFAF
:1040E000162104AB9C4661440A230B700122372041
:1040F000FEF790FFC8E60C2E8BD1254A4C230121F8
:10410000D1548AE7172704AB9C4667440122390043
:104110004B20FEF7DFFF3A7880235B4213430F21E9
:1041200004AA944661440B7001224B20FEF772FFF3
:10413000174A5423D35C0E2104AA944661440B70A1
:1041400001222420FEF766FF6AE7172404AB9C4691
:104150006444012221003120FEF7BCFF0023E35616
:104160000722934305221343152104AA9446614470
:104170000B7001223120FEF74DFF09A90C230B70B3
:1041800001223720FEF746FF7EE6C0467C0A00206B
:10419000AC0B002080844E4080847E4130B58DB0D1
:1041A0000C0053019B1A9B009A18D500FEF75EFF86
:1041B0000895002307930693059304930393052220
:1041C0000292019396235B010093002300222100B9
:1041D0000020FFF72DFE2F246C4401222100312006
:1041E000FEF778FF23784022934323703F3A210063
:1041F0003120FEF70FFF2E216944F0230B700122BE
:104200004020FEF707FF2D216944A0230B700122F7
:104210004120FEF7FFFE084C2900200000F0B4FD0D
:10422000064B02221A71200000F0D6FC0320FFF793
:10423000B9F80DB030BDC046140C0020AC0B002006
:1042400070B582B04D4B1B79012B04D0022B00D1ED
:104250006BE002B070BD494B5B79002B21D0012B84
:10426000F7D1464A5323D35C002BF2D06B46591D3D
:1042700002230B7001221220FEF7CCFE404B1B687C
:10428000002BE6D05C69002CE3D06B46DD1D0122DB
:1042900029001C20FEF71EFF2B783F201840A04766
:1042A000D7E7364B3022012199541B8E012BD0D1F8
:1042B000344800F029FD314D31230122EA546B4688
:1042C000DC1D21001120FEF705FF23785B085B420F
:1042D0003222AB54313A21001B20FEF7FBFE267838
:1042E0003602012221001C20FEF7F4FE2278324320
:1042F000130A5901C91A8801411AC900C918FF20B7
:10430000104043011B1A9A01D31ADB001B1880339B
:104310001B0ACB186B63012221000C20FEF7DAFE8A
:1043200023785B093822AB5493E7144B5B79012B5C
:1043300000D08EE7114A5233D35C002B00D188E7BE
:104340006B46991D02230B7001221220FEF762FEBC
:104350000B4B1B68002B00D17BE75C69002C00D164
:1043600077E76B46DD1D012229001C20FEF7B2FE17
:104370002B783F201840A0476BE7C046AC0B0020CD
:10438000800A0020840A002010B582B0194B5B79A6
:10439000012B2CD16B46DC1D012221001220FEF7DF
:1043A00099FE2378DB0711D56B46991D05230B7009
:1043B00001221220FEF72EFE0F4B1B68002B16D099
:1043C0009B69002B13D00120984710E06B46D91D44
:1043D00004230B7001221220FEF71CFE064B1B6803
:1043E000002B04D09B69002B01D00020984702B01D
:1043F00010BDC046AC0B0020800A002070B584B010
:1044000004006B46D971594B5B79002B03D0012B0B
:104410003CD0002025E0554B00229A876A4607329F
:1044200012785A8722215B5C002B1ED101226B4639
:10443000D91D0020FEF7EEFD6B46DA79531EDBB284
:104440003F2B19D849493F23CA54484D3F26AA5DFE
:1044500021000020FEF7DEFDAB5DAA8F9B18AB8725
:10446000A86AFFF7FDF804B070BD03A90A70012225
:104470003220FEF7CFFDDFE792B221003C4800F08A
:10448000A7FC3A4A3F232021D154DEE7374A55237F
:10449000D35C002B46D00F256D4401222900332028
:1044A000FEF718FE2B7841229343092169440B70D3
:1044B000403A3320FEF7AEFD02A919230B7001220A
:1044C0003B20FEF7A7FD6B4607331B782749642284
:1044D0008B540F2169440B70633A2220FEF79AFD3A
:1044E0000E21694400250D7001220E20FEF792FD79
:1044F0000D2169440D7001220D20FEF78BFD03ADE7
:10450000012229000120FEF7E5FD2B78F8229343D4
:1045100025D06B46DA7921000020FEF77BFD134B96
:10452000986D9EE70F256D44012229003320FEF788
:10453000D1FD0023EB5641229343012213430B216B
:1045400069440B7001223320FEF764FD0A2169449F
:104550001D230B7001223B20FEF75CFDB3E7FEF745
:104560005FFF012000F016FBD3E7C046AC0B002034
:10457000AC0A002070B584B00F236B4400221A707F
:10458000C94B1B79012B04D0022B00D16BE104B085
:1045900070BDC54B5B79002B33D0012BF7D10B21BC
:1045A000694440230B7001221220FEF733FD0E24D4
:1045B0006C44012221001220FEF78CFD22780F238B
:1045C0006B441A701B789B0600D4DFE003A92023FC
:1045D0000B7001221220FEF71DFDB34A5623D35C57
:1045E000002B02D1130000221A71B04800F08CFB9E
:1045F000AF4B1B68002BCAD01B69002BC7D0984754
:10460000C5E7A94A2423D35C002B1ED1A64B5A8FA1
:10461000002A76D19B8F002B73D1A34A2233D35C1F
:10462000002B63D1110001223A310020FEF752FD28
:104630009D4CA38F9F495918628FD21AD2B2002085
:10464000FEF748FD638FA38766E00E246C440122C9
:1046500021003F20FEF73EFD22780F236B441A70A5
:104660001B789B07D2D402A90B230B7001223E209A
:10467000FEF7D0FC6B46D91D10230B7001223F20A2
:10468000FEF7C8FC894800F03FFB874A2623D35C2D
:10469000002B16D1884800F037FB834B00221A719B
:1046A000834B1B68002B03D01B69002B00D098475D
:1046B0007D4B002230215A5401315A549A875A872F
:1046C00065E70E246C44012221000D20FEF702FD57
:1046D000237840221343092169440B7001220D20E5
:1046E000FEF798FC744800F077FAD9E70E246C4482
:1046F000012221003220FEF7EDFC22786A4B5A8716
:1047000096E7694CA38F6B495918D21AD2B2002090
:10471000FEF7E0FC638FA387644800F0F5FA624A75
:104720002623D35C002B1CD1130000221A7162488F
:1047300000F0EAFA5E4B1B68002B09D09C68002C45
:1047400006D0594B32229A56598F00235948A04718
:10475000554B002230215A5401315A549A875A87B6
:1047600015E70E246C44012221000D20FEF7B2FC57
:104770002378402213430A2169440B7001220D2043
:10478000FEF748FC4C4800F027FAD3E70E246C44AF
:10479000012221001920FEF79DFC0023E356424927
:1047A00060228B54002B50DB9B103F241C400E25B5
:1047B0006D44012229001A20FEF78CFC2A7813B2DE
:1047C000002C48DB1B119B188B3B374962228B5214
:1047D0000E246C44012221001320FEF77BFC237879
:1047E000314D6426AB55012221001020FEF772FCEA
:1047F00023780D2169440B7001220D20FEF70AFC7D
:10480000AA5D2C490020FEF765FC5623EB5C002BCB
:1048100002D1254B00221A71244800F075FA244B6E
:104820001B68002B00D1B2E69C68002C00D1AEE6DC
:104830001D496023CB5662228A5E6420095C1D48B4
:10484000A0471E4800F014FBA1E65B429B103F24EA
:104850001C406442ABE71B119B181B198B3B124990
:1048600062228B52B4E7164800F04EFA0E4B5B7989
:10487000012B10D00C4B00221A710D4B1B68002B22
:1048800000D184E61B68002B00D180E698470D48D4
:1048900000F0EEFA7BE60E21694407330B7001222B
:1048A0001220FEF7B7FBE5E7AC0B0020980A0020CA
:1048B000800A0020AC0A0020840A0020DCCC00081A
:1048C000140C0020E8CC000810B582B0434B1B79D3
:1048D000012B03D0022B5ED002B010BD3F4B5B79A1
:1048E000002B1BD0012BF7D13D4800F00DFA6B4691
:1048F000D91D80230B7001221220FEF78BFB374B52
:1049000000221A71374B1B68002BE5D0DB68002BA7
:10491000E2D09847344800F0ABFADDE72F4B5B8FCD
:10492000002B0ED12D4B9B8F002B0AD12B4A22330B
:10493000D35C002B19D1110001223A310020FEF77F
:10494000C9FB264A538F908F191A3E24125D91425B
:1049500016DD264941180020FEF7BCFB1F4B3E2206
:104960009A5C998F52189A87B6E76B46DC1D012234
:1049700021003220FEF7AEFB2278184B5A87E0E781
:104980001A4941181A1AD2B20020FEF7A3FB134BA2
:104990005A8F9A87A0E7114B5B79002B9CD10F4A65
:1049A000538F908F191A3F24125D91420ADC0F49F0
:1049B00041181A1AD2B20020FEF72CFB074B5A8F6F
:1049C0009A8789E7094941180020FEF723FB034B2A
:1049D0003F229A5C998F52189A877DE7AC0B002092
:1049E000980A0020800A0020F4CC0008AC0A0020BD
:1049F00030B583B004000D00FEF7E2FE002C03D0BA
:104A0000012C0ED003B030BD0A4A2223D35C002B08
:104A1000F8D16B46991D0D7001223220FEF7FAFA8B
:104A2000F0E76B46D91D0D7001222320FEF7F2FA44
:104A3000E8E7C046AC0B002010B582B004000120AE
:104A4000FEF7BEFE0B4A5C23D454002C09D16B4602
:104A5000D91D12230B7001223920FEF7DBFA02B0B8
:104A600010BD6B46991D34230B7001223920FEF7CF
:104A7000D1FAF4E7AC0B002070B582B03C4B1B7947
:104A8000012B03D0022B44D002B070BD384B5B79B0
:104A9000002B08D0374B1B68002BF5D0DB68002BB0
:104AA000F2D09847F0E7324C3022A3540132A3549D
:104AB000A38763876B46591D0B230B70303A3E204A
:104AC000FEF7A8FA01A910230B7001223F20FEF780
:104AD000A1FA2623E35C002B14D06B46DC1D0122D7
:104AE00021000D20FEF7F6FA2378402213436A4690
:104AF000911D0B7001220D20FEF78CFA1E4800F06C
:104B00006BF8C7E71A4B00221A711B4800F0FCF83B
:104B1000C0E7FEF759FA0020FEF744FC002410E03D
:104B2000164D66003619705DFEF74AFEAD196878BD
:104B3000AB786A46D11D0B700122FEF76BFA013487
:104B4000E4B2102CECD90020FEF73AFE084C5C23AE
:104B5000E05CFFF771FF00232371064B1B68002BFD
:104B600000D191E75B68002B00D18DE798478BE778
:104B7000AC0B0020800A0020840A0020A8CC00088A
:104B800010B5034B1B685B689847023010BDC046E8
:104B90007C0A002010B500F069FC10BD70B504005F
:104BA00000F026FB050001232372266800F014FCA8
:104BB0002818864203D3206800F036FB70BD00F051
:104BC0000BFC2D182560F6E7002303604360037299
:104BD000C16003617047000070B50400EFF31085F9
:104BE00072B6002829D0264B1A681300002B04D077
:104BF0009C4201D01B69F9E70123002B1DD163689A
:104C0000236000232372002A1AD000F0E5FB2368FA
:104C10009C46604420601A4B1A68136898421ED262
:104C2000002A01D0002313722261154B1C60200062
:104C3000FFF7B4FF85F3108801E085F3108870BD9D
:104C400000F02EFC0E4B1B68002B01D000221A72C4
:104C500023610B4B1C602000FFF7A0FFEAE71369FC
:104C60001169002908D01968884202D91A001B6905
:104C7000F6E714612361DDE7146100232361D9E7BE
:104C8000280C002010B500F017FC040000F008FC10
:104C9000001B1C4B1B68002B0DD01C0002E00021E8
:104CA000116024692269002A05D011688142F6D971
:104CB000091A1160F5E7002B06D0124A1969116034
:104CC000DB68002B12D098470E4B1B68002B0FD0CF
:104CD0001C6800F081FB84420AD20A4A13681969F1
:104CE0001160DB68002B02D09847EDE7FEE7FEE796
:104CF000044B1868002804D0037A002B01D1FFF779
:104D00004DFF10BD280C002010B5EFF3108472B6D3
:104D10001C4B1A68002A0BD0002809D082420AD006
:104D20001300002B28D0834222D01A001B69F8E719
:104D300084F3108822E0137A002B0FD0106900282A
:104D400006D0002313720F4B1860FFF727FF13E004
:104D500000F058FB0B4B00221A600DE01369002B8A
:104D600002D0084A136007E0064B00221A6003E0F5
:104D70001B69002B03D0136184F3108810BD00233E
:104D80001361F9E7280C002070B50400080000F05A
:104D900031FA05002000FFF7B7FF00F029FA85423D
:104DA00002D22060606070BD2800FAE710B500F004
:104DB00021FB00F027FA10BD70B5050000F01AFBCA
:104DC0000400280000F016FA201A00F01BFA70BD4B
:104DD00004E00A7802701A0001310130531E9BB2C0
:104DE000002AF6D170470000EFF3108372B6034A31
:104DF00011680843106083F3108870472C0C002062
:104E0000EFF3108372B603490A6882430A6083F3A2
:104E1000108870472C0C0020014B18687047C04662
:104E20002C0C002010B50F480F4B0360E1235B02F0
:104E3000436000238360C360036183610C3343617B
:104E4000FDF746FD002808D1002201211C20FBF7B8
:104E500061FE1C20FBF78EFE10BD5D21034800F0B3
:104E6000D1FBF1E7300C00200044004000CD0008E9
:104E70000FB4F0B5CE46474680B5A3B02AAB02CBFF
:104E80002193EFF3108572B6219A01A801F0F4FE88
:104E9000C6B21C4B1B88FF2202409B18FF2B24DD4F
:104EA000184F3C88E4B26142CBB299463888164B21
:104EB000984640444A4601A901F036FEA419E4B2DE
:104EC00001A949442200404601F02EFEA4B23C80D4
:104ED00085F310881C20FBF757FE23B00CBC9046CE
:104EE0009946F0BC08BC04B01847064F3B880648FA
:104EF000C01801A901F018FE3C88A419A4B23C8096
:104F0000E6E7C046A20D0020A00C002010B512E07C
:104F1000EFF3108272B6114C2388114959180133EE
:104F2000FF200340238082F3108896235B00012238
:104F30000C48FDF723FC0C4B1B880133FF33074A59
:104F400012889B1AD917090E5B18FF2213405B1AAF
:104F5000002BDDDC1C20FBF723FE10BDA00D002084
:104F6000A00C0020300C0020A20D002030B589B02C
:104F7000134BD96A01221143D962D96A11400191B8
:104F80000199D96A1143D962DB6A13400293029BEB
:104F90000424039402230493059201330693079497
:104FA000A025ED0503A92800FCF79AF80823039330
:104FB000079403A92800FCF793F809B030BDC04658
:104FC0000010024010B5044A916B80239B020B43F2
:104FD0009363FFF7CBFF10BD0010024010B5084BE4
:104FE0001B78002B0BD1074B1B68984700F04CFC3B
:104FF00000F0B4F8FFF716FF014B01221A7010BD44
:10500000A40D002090CB000800B595B0142200211B
:105010000FA801F0CDFD2C22002102A801F0C8FD4F
:1050200002230193012204920F3205920B938023F5
:105030001B030D9380231B040E9301A8FCF796FC21
:10504000002821D1154A916B80235B050B439363A4
:1050500013490B68134A1A4080231B0113430B604A
:105060000F4B5B68DB06FBD40F230F930C3B1093B5
:10507000002311931293139301210FA8FCF78CFFC7
:10508000002806D115B000BDD421074800F0BAFAB7
:10509000D8E7E721044800F0B5FAF3E70010024032
:1050A00000700040FFE7FFFF10CD0008F8B50600D4
:1050B0000C0000222448FBF7A3F96768224D002268
:1050C00031002800FBF7D2F9002221002800FBF76D
:1050D00097F96268BA42F0D1F1781C4B4B43033325
:1050E0009D088B072ED01A4F7078013803011B1AC8
:1050F0009B001B180133D90FC91849104000C74045
:1051000003233B40CB1A5B19B178CB18013B590004
:10511000CB181901CB1A1901C91ACE01A778257825
:1051200029014D1B2901491B0B0160780101091A56
:1051300088001818C01980198002801A054B9C46F7
:105140006044F8BD044FCFE7D00D0020B505000046
:10515000A0AA9900FF0300005055440070B586B026
:105160001E4B1B78002B01D006B070BD1C4C1D4B94
:105170002360002565601F23A3601B4BE36025614E
:10518000A561E5612000FBF745FB6B46DD7001265C
:105190005E709E701E70002269462000FBF72EFC98
:1051A00001A90D704D708D70CD704D600D61CD6099
:1051B00000222000FBF784FB2000FDF76DF8802122
:1051C00049002000FBF77EFA084C211D2000183012
:1051D000FFF76CFF2060014B1E70C5E7A50D002096
:1051E000D00D002000280040FF030000F40D002037
:1051F0000320704710B5410EC0017D220023FBF74C
:105200005DF810BD70B504000025C30E4201121BED
:10521000AB41960F990031439000001969414B064C
:10522000C009184370BD0000F0B587B004005D4BA5
:1052300000255D5F033501A96846FFF737FF5A4B2C
:105240001B68C01A201A854228D20120FFF7D8FD1A
:10525000FFF7E2FD002825D001AD53492A000B1DC0
:10526000C1CBC1C241CB41C28B6900934F48016899
:10527000CA68FF231A404E4B1343CB60802149007C
:10528000FBF720FAAB884B4FFF1ABFB2A3059B0D6B
:10529000FF18BFB2A30A6A46907810E00120FFF71A
:1052A000A3FDD5E70130FFF7ABFD3E4B00229B5E2F
:1052B000E41AD1E7404A94466344013080B23F4A41
:1052C0009342F7D801AA147804E03D4A9446634417
:1052D0000134A4B23B4A9342F7D801AA557802E0C0
:1052E0003C3B0135ADB23B2BFAD801AA96789BB274
:1052F000F618B6B205E0344B9C466744BFB201369F
:10530000B6B22C4B9F42F6D803E03C3EB6B2013514
:10531000ADB23B2EF9D803E03C3DADB20134A4B2AE
:105320003B2DF9D803E0183CA4B2013080B2172C11
:10533000F9D86B46DB789B070BD16B465B78013B5A
:10534000224AD15C8BB298420ED9FAF749FF88B253
:105350000AE06B465B78013B1D4AD15C8BB29842F8
:1053600002D9FAF73DFF88B2124BDF1B19494F6093
:10537000A0231B058B618E704D700C702023C854C8
:1053800001ABDB78CB700023CB614B6180225200F4
:105390004A62CB600B6100220448FBF795F807B026
:1053A000F0BDC046A60D0020F40D0020D00D002059
:1053B0007FFEFFFFFF03000080AEFEFF7F51010074
:1053C000F0F1FFFF0F0E000000FCFFFF34CD0008DE
:1053D00028CD0008A80D002000B587B001A96846B7
:1053E000FFF764FE024B1B68C01A07B000BDC04641
:1053F000F40D002000B587B001A96846FFF756FEFE
:1054000007B000BD10B506480168CA68FF231A40FE
:10541000044B1343CB6080214900FBF753F910BDC7
:10542000D00D00207FFEFFFF10B50120FFF7E8FC44
:105430000B4B1B689A68D20402D5DA68D20500D4F7
:1054400010BDD968FF221140064A0A43DA60064BB4
:10545000802292025A61024800F08CF8F0E7C046C0
:10546000D00D00207FFEFFFF0004014030B587B063
:10547000410EC0017D220023FAF720FF040001A99C
:105480006846FFF713FE050000E0C04601A9684624
:10549000FFF70CFE401BA042F7D307B030BD000061
:1054A00010B5044C211D20001830FFF7FFFD2060CF
:1054B00010BDC046F40D0020014B18687047C0466F
:1054C000F40D00200020704700B583B001900198D2
:1054D000FFF760FB03B000BD10B5094A916B802354
:1054E0005B050B439363FAF783FFFDF79BFC054ACB
:1054F000136808210B431360FDF78AFC10BDC046FA
:10550000001002400020024000B599B004230A9325
:10551000002314930133FF330C930AA8FCF726FAF7
:10552000002819D12023009380235B020193684651
:10553000FDF706FA002814D10C4A116D8023DB0216
:105540000B431365002200210220FBF7E3FA02203F
:10555000FBF710FB19B000BD8D21054800F052F893
:10556000E0E79521024800F04DF8E5E70010024021
:1055700040CD000810B5FFF785FB10BD10B500F059
:1055800027F910BD042809D004D80138012803D810
:1055900005207047082801D00720FAE70620F8E721
:1055A00030B587B00C22002103A801F001FB0323D2
:1055B0000293C023DB010193104CE36A01252B43C6
:1055C000E362E36A2B400093009BA02001A9C00581
:1055D000FBF786FDE36AAB43E362626B8023DB0388
:1055E00013436363FCF740FEFCF746FEFCF74CFEFA
:1055F000636B034A1340636307B030BD0010024081
:10560000FFFFBFFF10B50A04120C01000148FFF7AD
:105610002FFC10BD5CCD000810B51748174B036078
:10562000174B4360002383600122C2600361436122
:105630008361C3610362FBF737FF00280CD10021AF
:105640000D48FCF79DFD00280BD100210A48FCF70E
:10565000C3FD00280AD110BD4F210A48FFF7D2FF31
:10566000EDE756210748FFF7CDFFEEE75D2105483E
:10567000FFF7C8FFEFE7C046100E002000540040BF
:10568000060722F070CD000800B587B002680D4B08
:105690009A4201D007B000BDC0239B0001931223A2
:1056A0000293113B0393023304930133059301A941
:1056B0000548FBF715FD054A916B80239B030B43BF
:1056C0009363E7E7005400400004005000100240DC
:1056D00030B587B0224CA04223D00FD9214CA04234
:1056E00029D0214CA04230D1204CE56A08231D432B
:1056F000E562E46A23400493049B0CE0A024E405E3
:10570000A04222D1194CE56A01231D43E562E46AF7
:1057100023400193019B11601100FBF7E1FC07B0EE
:1057200030BD124CE56A02231D43E562E46A234062
:105730000293029BEFE70D4CE56A04231D43E562EB
:10574000E46A23400393039BE5E7084CE56A802362
:105750001D43E562E46A23400593059BDBE7C046F1
:105760000004005000080050000C005000100240DF
:1057700070B51400FF2208009043021E00D00822DA
:105780000F48014201D0042002430E48014201D0DB
:10579000022002430C48014201D001200243002BA9
:1057A0000DD09200094813500800FFF7EBFE0500EA
:1057B00000222100FBF7AEF92800FBF7DBF970BDF2
:1057C000F0F0FFFFCCCCFFFFAAAAFFFF5C0E002089
:1057D00010B5FF2302009A43131E00D008230B4A82
:1057E000104201D004221343094A104201D0022280
:1057F0001343084A104201D0012213439B00064A7A
:105800009B58002B00D0984710BDC046F0F0FFFF1A
:10581000CCCCFFFFAAAAFFFF5C0E002010B5D2B2CD
:10582000FBF72CFD10BD000010B586B0142200213E
:1058300001A801F0BDF902230293039301330493FD
:10584000A024E40501AA20212000FFF741FF01AABE
:1058500040212000FFF73CFF01AA80212000FFF734
:1058600037FF012302930393064C01AA4021200035
:10587000FFF72EFF012240212000FFF7CFFF06B0E7
:1058800010BDC0460004005010B51F4B1F4A1A60DF
:105890001F4B1A6800231F498A4203D9013352085B
:1058A000062BF8D95A0724D40022990723D40021C3
:1058B0000A43DB0721D5082313431348C3610023A0
:1058C000836082225200426003614361C36083624D
:1058D0000362FC32826143620F4A516B80235B0199
:1058E0000B435363FBF7E2F9002808D1FFF79CFF55
:1058F00010BD2022D9E71021DAE70023DCE772216E
:105900000648FFF77FFEF1E79C0E002000300140C3
:1059100030000020809698000010024080CD0008E2
:1059200010B586B00E216944088016246C4401230A
:105930005B420093023322000248FBF7FBF9208808
:1059400006B010BD9C0E002010B588B0FCF76EFCB0
:10595000FFF75AFBFFF724FE154BDA6A01242243B6
:10596000DA62DA6A22400192019AD96A042211436A
:10597000D962DB6A1A400292029BFFF72FFBFFF706
:105980004BFE1422002103A801F012F90494032312
:10599000069303AA80210748FFF79AFE00F0CEF88D
:1059A000044A536980214B40536100F003F9F7E743
:1059B0000010024000080050104B1968802252006D
:1059C0000A431A60DA680E490A40DA601A680D491B
:1059D0000A401A609A6801218A439A601A680A4943
:1059E0000A401A60DA6809490A40DA6000221A613E
:1059F000074B802212059A607047C0460010024093
:105A00000C40FF88F6FFF6FEFFFFFBFFFFFF02FFE3
:105A100000ED00E07047000010B50248FFF728FADB
:105A2000C046FDE7B4CD00087047704710B5FCF7DD
:105A30000DFC10BD10B5FFF769FA10BD10B5FFF7EA
:105A4000F3FC10BD10B50120FBF71EFC0220FBF794
:105A50001BFC10BD10B50420FBF716FC0820FBF75B
:105A600013FC10BD10B51020FBF70EFC2020FBF737
:105A70000BFC4020FBF708FC8020FBF705FC802096
:105A80004000FBF701FC80208000FBF7FDFB80203D
:105A9000C000FBF7F9FB80200001FBF7F5FB80203D
:105AA0004001FBF7F1FB80208001FBF7EDFB80203C
:105AB000C001FBF7E9FB80200002FBF7E5FB10BD0E
:105AC00010B5FFF701FD10BD70B592B002AC2170AA
:105AD000002404E0151901342E7802AD2E55A3429E
